:02000004085F93
:10C0000000C05F08FCFF5F0800000600200005017B
:08C010000401A118000000006A
:10C018001348144908B5884205D0134A824202D011
:10C02800124B121A98471248124A0021124B121A40
:10C03800984712481249884205D0124A824202D0D3
:10C048000A4B121A984710481049884205D0104ADE
:10C05800824202D0054B121A9847014808BD00BF1A
:10C06800E0A7071030F25F0850A807102D0D111037
:10C0780050A80710FCAF0710A10E111070CE3F0298
:10C08800A8C05F0878CE3F0278CE3F02B0C05F08F4
:0CC09800F8FF3F0219C05F080000000024
:08C0A8009CC05F08C0FB3F02D1
:10C0B000034613F8012B002AFBD1181A01387047E8
:10C0C00070B502F079FC0025054E064CA41BA408AF
:10C0D000AC4200D170BD56F8043B98470135F7E7F4
:10C0E000CCFF3F02F8FF3F0200F00EB808B500F0A9
:10C0F000ADF9BDE8084002F017BC01F019BB01F032
:10C1000017BB01F023BB704770B5554D88B00121B6
:10C11000288802F0C1FC0021288802F0CEFC012012
:10C1200002F02DF90021FF22084602F038F902F052
:10C1300067FB4FF4E13102F053FB002000F0FAFE00
:10C1400041F288360446002000F0F4FE001B61F145
:10C150000001B04271F1000307D202F051FB02F07E
:10C1600043FB10B901F05CF9EDE702F049FB02F086
:10C170003BFB04A801F070F904A93A4802F0D9F990
:10C1800004A802F059F902F03BFB3749044604A821
:10C1900002F09DF9354904A802F0EFF90168204644
:10C1A00002F0C5F804A802F047F902F029FB304973
:10C1B000044604A802F08BF92A4904A802F0DDF92C
:10C1C0000168204602F0B3F804A802F035F902F045
:10C1D000BBFC57230146274A274800F021FB0446B1
:10C1E000B8B902F00DFB254902F0A1F8224621461C
:10C1F000FF2002F0D4F82C88204602F077FCB0FA39
:10C2000080F12046490902F058FCFA2002F05AFB5E
:10C21000F1E740F29B134FF48052CDE9013219232C
:10C22000042200933C210223134800F0B9FB0A21A9
:10C23000114800F025FB0A210F4800F026FB0021E1
:10C240000D4800F027FB0022FF21104602F0A7F85E
:10C2500002F0D6FA0A4908B0BDE8704002F067B8AB
:10C26000E4A7071058A80710D0FB3F02D4AB071073
:10C27000E5FB3F02801A060004AA0710F1FB3F020B
:10C2800021FC3F0230B585B000F038FE1F4A13682C
:10C29000C31A272B27D910601D4800F0A6F9D0B18A
:10C2A0001C4C1B48256800F097FA1B4B43F82500EF
:10C2B0001748256800F09CFA184B43F825001448ED
:10C2C00000F0A0F923680133632B2360144B0CDCCE
:10C2D0001B7843B10DE00E4800F0C9F90C4800F09E
:10C2E00084F90028DCD105B030BD00222260012293
:10C2F0001A700C4B642102930B4B074A01930B4BB2
:10C30000064800930A4B00F0A7FCECE700AA0710D0
:10C3100004AA071054A8071040AA07106CA8071019
:10C3200051A80710E4AB071068A80710E5AB071089
:10C33000D0AB071070B5044600200D4601F0B2F9ED
:10C34000661C28B13378DBB213B901F069F8F9E75C
:10C35000D6E88F3FDBB20BB9284670BD002001F054
:10C36000A1F928B13378DBB213B901F059F8F9E734
:10C370002378DBB2012BEFD1207BEEE730B58DB017
:10C3800002F06CF9294B01901B68294A0093294B54
:10C3900004A81B681268284902F0FCF8274B049C8B
:10C3A0001D7820460CB1FFF783FE3C238DF8085022
:10C3B00000252246CDE900532149034608A801F093
:10C3C000EDFB29460898FFF7B5FF099C05467CB1AF
:10C3D0006368013B63605BB9236820469B689847AC
:10C3E000A368013BA3601BB923682046DB6898471C
:10C3F000B5B102F005FA1349044608A802F067F83F
:10C4000004A908A802F0B9F80168204601F08FFFDE
:10C4100008A802F011F804A802F00EF80DB030BD23
:10C4200002F0EEF9084901F082FFF4E7D0AB071003
:10C4300058A8071068A8071037FC3F0250A807103B
:10C4400072FC3F0284FC3F0290FC3F022DE9F04168
:10C45000FFF718FF00F052FD41F28731484A136898
:10C46000C31A8B4240F28980464BDFF83C811C881E
:10C4700098F90030444E012B10606BD196F90050B2
:10C48000012D67D1204602F031FBB0FA80F1204641
:10C49000490902F012FB0022FF21104601F07FFF44
:10C4A00002F0AEF9394901F02FFF02F0A9F9384B3B
:10C4B00007461C68002C58DA2D2101F029FF614243
:10C4C0000A22384601F03DFF02F09AF9314901F0A5
:10C4D0001BFF02F095F998F900400746002C46DA58
:10C4E0002D2101F015FF61420A22384601F029FF93
:10C4F00002F086F9284901F007FF02F081F9274B85
:10C5000007461C68002C34DA2D2101F001FF61423E
:10C510000A22384601F015FF02F072F9204901F0B5
:10C52000F3FE02F06DF996F900400746002C22DA7E
:10C530002D2101F0EDFE61420A22384601F001FF93
:10C5400002F05EF9174901F0F2FEB5B1BDE8F04125
:10C55000FFF714BF0021204602F0AFFA0022642149
:10C56000FF2001F01CFF00259AE72146A8E721469D
:10C57000BAE72146CCE72146DEE7BDE8F08100BFFF
:10C58000FCA90710E4A70710E5AB07109FFC3F02CA
:10C5900068A80710A5FC3F02B2FC3F02D0AB071011
:10C5A000BDFC3F02C8FC3F02E4AB0710012208B506
:10C5B000074B08491A70084801F089FF07490848E5
:10C5C00001F085FFBDE80840064800F00DB800BF47
:10C5D00050A80710CAFC3F02D4AB0710E4FB3F028F
:10C5E00058A8071004AA0710704790F8383090F840
:10C5F0003900181AC3B240B20028BCBF181D40B29F
:10C60000C0B2704708B50246FFF7EFFF30B192F8AD
:10C610003930013303F0030382F8393008BD70B5B7
:10C62000044616460D46006801F0CCFC20683146F1
:10C6300003689B6898470021206801F0CAFC01222A
:10C640002946206801F0BBFC206803681B699847F5
:10C6500020B1206803685B699847C0B270BD0422AE
:10C660000179FFF7DCBF06220179FFF7D8BF2DE97A
:10C67000F7430446FFF7F7FF05462046FFF7EFFFB5
:10C68000854200F08E80451B4FF05701206848BF5F
:10C690002035667901F09AFC2068072103684FF085
:10C6A00020089B689847206801F097FC4FF000092C
:10C6B0006E4306EB4606002E74DD202EC9BF62795C
:10C6C000374602EB4202B8FBF2F7C8BF5743572187
:10C6D0003A462068F61B01F072FC002FEBDD94F85F
:10C6E00038302068013303F0030384F838300368DE
:10C6F0008DF807905B6998478DF8060020680368FD
:10C700005B6998478DF80500206803685B69984766
:10C710008DF8040094F83830019A0233C2F3110204
:10C7200044F823206379012B19D9206803685B69D9
:10C7300098478DF80600206803685B6998478DF874
:10C740000500206803685B6998478DF8040094F839
:10C750003830019A0633C2F3110244F8232063797A
:10C76000022B19D9206803685B6998478DF8060089
:10C77000206803685B6998478DF8050020680368A6
:10C780005B6998478DF8040094F83830019A0A33B1
:10C79000C2F3110244F823206379A3EB83031F44FF
:10C7A0009BE70025A8B203B0BDE8F08370B505464D
:10C7B0000E4600F0A3FB044600F0A0FB001BB042B5
:10C7C00008D82846FFF753FF012804D0012002F0C3
:10C7D00079F8F1E7002070BD10B5FA210446FFF7A3
:10C7E000E5FF20B194F83830023354F8230010BD2F
:10C7F00010B5FA210446FFF7D9FF20B194F838307C
:10C80000063354F8230010BDFF220179FFF707BF5C
:10C8100010B5FE2201790446FFF701FFA07110BD9B
:10C8200037B504461D4608462160019201F0A0FB81
:10C830000199206801F098FB20462571FFF7E4FF7D
:10C84000152805D12046FFF7E3FF012003B030BDD6
:10C850000020FBE770B5044616461D46006801F04F
:10C86000B1FB2068314603689B68984720682946D9
:10C8700003689B6898472068BDE8704001F0ADBB35
:10C880000B460C220179FFF7E5BF0B460D2201791B
:10C89000FFF7E0BF0B460E220179FFF7DBBF0B4627
:10C8A00010220179FFF7D6BF10B5044601790023A5
:10C8B0000422FFF7CFFF2046217900230522FFF74E
:10C8C000C9FF204621790023BDE810400622FFF76A
:10C8D000C1BF2DE9F0410D4617460A4601790446CD
:10C8E0001E46FFF79CFE384046EA00032A462046D3
:10C8F0002179BDE8F041FFF7ADBF38B5BF22402335
:10C9000009210446FFF7E5FF00F0F8FA054600F0BC
:10C91000F5FA401B63280AD8092220462179FFF73F
:10C920007EFE430603D5012001F0CCFFEFE738BDC2
:10C930000B46F8220921FFF7CCBF0B469F220A21A4
:10C94000FFF7C7BF0B46E3220A21FFF7C2BF0B4622
:10C95000FC220A21FFF7BDBF01391346032914D871
:10C96000DFE801F002060B0EF8221121FFF7B1BF3C
:10C970001B018F2203F0F003F7E7F8221221F5E7FD
:10C980001B018F2203F0F003F8E770470B461F22CC
:10C990000821FFF79EBF1023EF220821FFF799BF60
:10C9A0002DE9F0471546DDE90879044688461E461C
:10C9B000DDF828A0FFF7A1FF012D49D10021204675
:10C9C000FFF7E4FF2046FFF7E6FF032E54D10721CF
:10C9D0002046FFF7ADFFBAF5805F667151DA00219E
:10C9E0002046FFF7AAFF632F58DC00212046FFF7FF
:10C9F000A9FFB9F1750F71DC00212046FFF7A7FFF1
:10CA000041462046FFF73CFF41462046FFF73DFFE9
:10CA100041462046FFF73EFF41462046FFF73FFFD5
:10CA2000012220461146FFF797FF012E0BD9022263
:10CA300020461146FFF790FF022E04D00322204625
:10CA40001146FFF789FF2046BDE8F047FFF72CBFEE
:10CA5000022D01D12021B2E7042D01D14021AEE702
:10CA6000082D01D16021AAE7102D01D18021A6E770
:10CA7000202DF3D1A021A2E7022E0CBF0321022119
:10CA8000A6E7BAF5005F01DA2021A9E7BAF5804FE1
:10CA900001DA4021A4E7A2D16021A1E7C72F01DC80
:10CAA0000421A3E7B7F5C87F01DA08219EE7B7F5AF
:10CAB000487F01DA0C2199E7B7F57A7F01DA102176
:10CAC00094E7B7F5C86F01DA14218FE7B7F5486F1F
:10CAD00001DA18218AE788D11C2187E7B9F1D60F3E
:10CAE00001DC012189E7B9F5CD7F01DC022184E772
:10CAF00040F29B1399457FF47FAF03217DE72DE939
:10CB0000F04100240C60012403F1FF38A04526DD2C
:10CB1000069D52F824C0A600AC4504F101051CDDB9
:10CB2000164456F8046CB44517DD2E469E42354631
:10CB300052F82670A6EB040E03D0BC4506F10106A0
:10CB4000F4D0BC4509DD0E680E2E06DC751C0D60A8
:10CB50000EF1010540F8264025442C46D6E7BDE8F5
:10CB6000F081F0B5012304468B420FDA54F8046FCC
:10CB70001A46254655F8047CB74203DD013A45F8CC
:10CB80000479F7D140F822600133EDE7F0BD2DE9DB
:10CB9000F043012390460D46434516DA55F8046FDD
:10CBA0001C46AC4600EB8609D9F800205CF8047CF2
:10CBB000964650F82720964503DD013C4CF8047951
:10CBC000F2D141F824600133E6E7BDE8F0832DE9B6
:10CBD000F04104461F4610460D460A682146FFF7FD
:10CBE000D6FF4FF0FF32C7F1000E296891421CDDDD
:10CBF000531C1E462B60B14215D0501C0CBF104672
:10CC000054F8220054F826C0ACEB0000B84201DC16
:10CC1000864506DD286800F10108C5F8008044F863
:10CC200020C00136E7E71A46DFE72046BDE8F041BD
:10CC3000FFF797BF37B5069D0C460095FFF75FFFDE
:10CC4000079BFFF7C4FF2268089B9A42D4BF22606B
:10CC5000236003B030BD00002DE9F04F16460022DE
:10CC60009B4605460C4613469DB0DDE92798A24237
:10CC700004DA55F8221001320B44F8E78D4FB3FB6C
:10CC8000F4F338460022A24206DA55F822100132A7
:10CC9000591A40F8041BF6E70021864A136852F837
:10CCA000040F013103445068034490681B1848BFC7
:10CCB00003339B10602942F8043CEFD100239A46CD
:10CCC0007C4A52F8041B0AF1010ABAF1640F0B44C2
:10CCD000F7D140F6B73293424EDD93FBFAFABAF140
:10CCE0003C0FA8BF4FF03C0A3C2200210DA802F0E7
:10CCF00027F804230F22CDF800A0CDE9013207A9BF
:10CD000064236C4A0DA8FFF795FF079B0022012BB7
:10CD100035DD4FF0010C0DA90846D1F804E000689C
:10CD20000CF1010CAEEB0000634501F1040102447B
:10CD3000F2D1591E92FBF1F240F2DC5191FBF2F27A
:10CD4000C9F80020012288F8002000225A49A24296
:10CD500019DB00220DAE3146CDE90822CDE90A22C9
:10CD60000C9293421BDD51F8040B642815DD534BE4
:10CD7000CBF80030002392E04FF01E0AB4E74F4991
:10CD8000C9F80010DFE755F8220047F8040B56F801
:10CD90002200013241F8040BD9E70132E1E7002417
:10CDA00025462146013B434FDFF80CC1049405930F
:10CDB000DDE90423934256DD1346D6F8048056F885
:10CDC000040B0133A8EB0009B9F1030F0493EFDD65
:10CDD0004FF07F4E0346F24698450EDD57F823206C
:10CDE0007245C8BF96465CF82320C8BF1C46524512
:10CDF000C4BF1D4692460133EEE757F8202057F88E
:10CE000028309B1A221A534393FBF9F357F820203A
:10CE1000134457F82520D21A0AFB02F24FEAE21A0D
:10CE2000BAF1000FC4DD0429C2DC5CF820305CF8E4
:10CE30002820281AD21A504390FBF9F018445CF8C5
:10CE400025301B1A0EFB03FE5FEAEE1EB0D01CABB2
:10CE500003EB8108642303FB0EF292FBFAF201312B
:10CE600048F8502CA4E708A8FFF77BFE4A100329D6
:10CE70004FEA820318DD1CA901EB820151F8543CF2
:10CE800051F8502C134403EBD3735B10DA1EB42A11
:10CE90003FF66DAF0A4AD35CCBF800300123269AE7
:10CEA00013701DB0BDE8F08F1CAA134453F8503C1A
:10CEB000ECE700BFE8AB071078AD071019FCFFFFE7
:10CEC000E3FC3F0209B504480068044B03441B68B7
:10CED0005B6C029309BD0000E0A707103000000062
:10CEE00009B504480068044B03441B685B6802935F
:10CEF00009BD0000E0A707100000000009B50448C4
:10CF00000068044B03441B685B69029309BD000081
:10CF1000E0A707100000000009B504480068044BB2
:10CF200003441B689B6D029309BD0000E0A7071036
:10CF30000000000009B504480068044B03441B6866
:10CF4000DB6D029309BD0000E0A7071000000000A0
:10CF500009B504480068044B03441B685B6E0293E8
:10CF600009BD0000E0A707100000000009B5044853
:10CF70000068044B03441B689B68029309BD0000D2
:10CF8000E0A707101400000009B504480068044B2E
:10CF900003441B68DB68029309BD0000E0A707108B
:10CFA0001400000009B504480068044B03441B68E2
:10CFB0001B69029309BD0000E0A7071014000000E0
:10CFC00009B504480068044B03441B685B6902937D
:10CFD00009BD0000E0A707101400000009B50448CF
:10CFE0000068044B03441B681B68029309BD0000E2
:10CFF000E0A707101000000009B504480068044BC2
:10D0000003441B68DB68029309BD0000E0A707101A
:10D010001000000009B504480068044B03441B6875
:10D020009B69029309BD0000E0A7071010000000F3
:10D0300009B504480068044B03441B68DB6902938C
:10D0400009BD0000E0A707101000000009B5044862
:10D050000068044B03441B681B6A029309BD00006F
:10D06000E0A707101000000009B504480068044B51
:10D0700003441B685B6A029309BD0000E0A7071028
:10D080001000000009B504480068044B03441B6805
:10D090009B6A029309BD0000E0A707101000000082
:10D0A00009B504480068044B03441B68DB6A02931B
:10D0B00009BD0000E0A707101000000009B50448F2
:10D0C0000068044B03441B681B6B029309BD0000FE
:10D0D000E0A707101000000009B504480068044BE1
:10D0E00003441B685B6B029309BD0000E0A70710B7
:10D0F0001000000009B504480068044B03441B6895
:10D100001B6C029309BD0000E0A70710100000008F
:10D1100009B504480068044B03441B681B6D029367
:10D1200009BD0000E0A707101000000009B5044881
:10D130000068044B03441B689B69029309BD00000F
:10D14000E0A707105400000009B504480068044B2C
:10D1500003441B685B69029309BD0000E0A7071048
:10D160004C00000009B504480068044B03441B68E8
:10D170009B68029309BD0000E0A707105000000063
:10D1800009B504480068044B03441B685B690293BB
:10D1900009BD0000E0A707105000000009B50448D1
:10D1A0000068044B03441B68DB69029309BD00005F
:10D1B000E0A707101800000009B504480068044BF8
:10D1C00003441B681B6A029309BD0000E0A7071017
:10D1D0001800000009B504480068044B03441B68AC
:10D1E000DB68029309BD0000E0A7071024000000DF
:10D1F00009B504480068044B03441B681B6902938B
:10D2000009BD0000E0A707102400000009B504488C
:10D210000068044B03441B685B69029309BD00006E
:10D22000E0A707102400000009B504480068044B7B
:10D2300003441B689B69029309BD0000E0A7071027
:10D240002400000009B504480068044B03441B682F
:10D25000DB69029309BD0000E0A70710240000006D
:10D2600009B504480068044B03441B681B6A029319
:10D2700009BD0000E0A707102400000009B504481C
:10D280000068044B03441B689B6A029309BD0000BD
:10D29000E0A707102400000009B504480068044B0B
:10D2A00003441B681B6C029309BD0000E0A7071034
:10D2B0002400000009B504480068044B03441B68BF
:10D2C0001B68029309BD0000E0A7071034000000AE
:10D2D00009B504480068044B03441B685B6802936B
:10D2E00009BD0000E0A707103400000009B504489C
:10D2F0000068044B03441B681B69029309BD0000CE
:10D30000E0A707103400000009B504480068044B8A
:10D3100003441B685B69029309BD0000E0A7071086
:10D320003400000009B504480068044B03441B683E
:10D330009B69029309BD0000E0A7071034000000BC
:10D3400009B504480068044B03441B68DB69029379
:10D3500009BD0000E0A707103400000009B504482B
:10D360000068044B03441B681B6A029309BD00005C
:10D37000E0A707103400000009B504480068044B1A
:10D3800003441B689B6A029309BD0000E0A70710D5
:10D390003400000009B504480068044B03441B68CE
:10D3A0005B68029309BD0000E0A707104800000079
:10D3B00009B504480068044B03441B689B6802934A
:10D3C00009BD0000E0A707104800000009B50448A7
:10D3D0000068044B03441B68DB68029309BD00002E
:10D3E000E0A707104800000009B504480068044B96
:10D3F00003441B689B69029309BD0000E0A7071066
:10D400004800000009B504480068044B03441B6849
:10D41000DB69029309BD0000E0A707104800000087
:10D4200009B504480068044B03441B689B680293D9
:10D4300009BD0000E0A707102C00000009B5044852
:10D440000068044B03441B685B69029309BD00003C
:10D45000E0A707102C00000009B504480068044B41
:10D4600003441B68DB69029309BD0000E0A70710B5
:10D470002C00000009B504480068044B03441B68F5
:10D480001B6A029309BD0000E0A707102C000000F2
:10D4900009B504480068044B03441B681B6B0293E6
:10D4A00009BD0000E0A707102C00000009B50448E2
:10D4B0000068044B03441B68DB6B029309BD00004A
:10D4C000E0A707102C00000009B504480068044BD1
:10D4D00003441B685B68029309BD0000E0A70710C6
:10D4E0002800000009B504480068044B03441B6889
:10D4F0009B68029309BD0000E0A707102800000008
:10D5000009B504480068044B03441B68DB680293B8
:10D5100009BD0000E0A707102800000009B5044875
:10D520000068044B03441B681B69029309BD00009B
:10D53000E0A707102800000009B504480068044B64
:10D5400003441B685B69029309BD0000E0A7071054
:10D550002800000009B504480068044B03441B6818
:10D560009B69029309BD0000E0A707102800000096
:10D5700009B504480068044B03441B68DB69029347
:10D5800009BD0000E0A707102800000009B5044805
:10D590000068044B03441B681B6A029309BD00002A
:10D5A000E0A707102800000009B504480068044BF4
:10D5B00003441B681B6B029309BD0000E0A7071022
:10D5C0002800000009B504480068044B03441B68A8
:10D5D0005B6B029309BD0000E0A707102800000064
:10D5E00009B504480068044B03441B681B6C029394
:10D5F00009BD0000E0A707102800000009B5044895
:10D600000068044B03441B685B6C029309BD000077
:10D61000E0A707102800000009B504480068044B83
:10D6200003441B685B6D029309BD0000E0A707106F
:10D630002800000009B504480068044B03441B6837
:10D640009B6D029309BD0000E0A7071028000000B1
:10D6500009B504480068044B03441B681B68029327
:10D6600009BD0000E0A707100800000009B5044844
:10D670000068044B03441B685B68029309BD00000B
:10D68000E0A707100800000009B504480068044B33
:10D6900003441B685B69029309BD0000E0A7071003
:10D6A0000800000009B504480068044B03441B68E7
:10D6B000DB6C029309BD0000E0A707100800000022
:10D6C00009B504480068044B03441B685B6D029372
:10D6D00009BD0000E0A707100800000009B50448D4
:10D6E0000068044B03441B689B6D029309BD000056
:10D6F000E0A707100800000009B504480068044BC3
:10D7000003441B68D3F88830029309BDE0A70710D3
:10D710000800000009B504480068044B03441B6876
:10D72000D3F89430029309BDE0A707100800000069
:10D7300009B504480068044B03441B681B68029346
:10D7400009BD0000E0A707100400000009B5044867
:10D750000068044B03441B685B68029309BD00002A
:10D76000E0A707100400000009B504480068044B56
:10D7700003441B689B68029309BD0000E0A70710E3
:10D780000400000009B504480068044B03441B680A
:10D790005B6A029309BD0000E0A7071004000000C7
:10D7A00009B504480068044B03441B68DB6A029314
:10D7B00009BD0000E0A707100400000009B50448F7
:10D7C0000068044B03441B681B6B029309BD0000F7
:10D7D000E0A707100400000009B504480068044BE6
:10D7E00003441B681B6C029309BD0000E0A70710EF
:10D7F0000400000009B504480068044B03441B689A
:10D800005B6C029309BD0000E0A707100400000054
:10D8100009B504480068044B03441B689B6D0293E0
:10D8200009BD0000E0A707100400000009B5044886
:10D830000068044B03441B68DB6D029309BD0000C4
:10D84000E0A707100400000038B5046805467CB165
:10D850006368013B63605BB9236820469B68984717
:10D86000A368013BA3601BB923682046DB68984787
:10D87000284638BD10B5836804460BB901F04AFA52
:10D88000C3689847A3681BB10322214620469847E6
:10D890002046BDE810401021FEF733BC10B5836868
:10D8A000044613B1032201469847204610BD13B524
:10D8B0006C460B460246D0E9000184E8030093E879
:10D8C000030082E8030094E8030083E8030002B049
:10D8D00010BD0000002302480360FFF7F3BA00BF49
:10D8E00008AF07100022024BC3E900229A6070477C
:10D8F0000CAF071070470020704710B50446102188
:10D90000FEF7FFFB204610BD08B5FFF7F6FF08BD88
:10D91000002230B54FF69C74026084808D888C8024
:10D920000C68858004600A6030BD10B5044600684C
:10D93000FFF70CFF204610BD38B5C46814B3237838
:10D94000DBB2022B03D104F10C00FFF7EEFF231D25
:10D950001D6835B12846FFF7A1FF10212846FEF7C4
:10D96000D0FB04F108031D6835B12846FFF796FF88
:10D9700010212846FEF7C5FB2046BDE8384014219B
:10D98000FEF7BFBB38BD0B6803604B68436013B143
:10D990005A6801325A60704737B5044668460D46EA
:10D9A000FFF7F1FF009B019A23600023626001A84A
:10D9B00001930093FFF748FF35B1281DFFF744FF9F
:10D9C00008212846FEF79DFB204603B030BD826843
:10D9D00010B50AB901F09EF9C368BDE810401847B8
:10D9E00008B5006800F11001FFF7F1FF08BD82687B
:10D9F00010B50AB901F08EF9C368BDE810401847A8
:10DA000008B5006800F11001FFF7F1FF08BD000044
:10DA100038B500230446036010200D46FEF76DFB69
:10DA200028B10123C0E90133024BC56003602060C7
:10DA3000204638BDA4FD3F027FB50026ADF8041096
:10DA40000546694602A80096FFF762FF1420FEF71C
:10DA500054FB044648B1022303700123C0E9016668
:10DA6000437002A90C30FFF753FF2846214640F8C7
:10DA7000044BFFF7CDFF02A8FFF757FF6846FFF7FB
:10DA800054FF284604B070BD38B5002383608B680E
:10DA900004460D462BB102229847EB68E360AB6861
:10DAA000A360204638BD0000F0B589B00468684620
:10DAB000FFF72EFF4FF00203D4E84F2F002A03D1C7
:10DAC000C4E8413F0029F7D121D104F10C05694692
:10DAD0002846FFF71DFF0122631CC3E88F2F00209B
:10DAE00004F10803D3E8EF6FC3E8E20F002AF9D18D
:10DAF0006EB1FFF7D7FD78B129463046FFF767FFD3
:10DB00003046FFF7CBFE10213046FEF7FAFA6846A2
:10DB1000FFF70BFF09B0F0BD314602A8FFF7B4FFD5
:10DB2000E068B4F9105008B101F048F906901020EF
:10DB3000ADF81C50FEF7E1FA0546E8B10027876012
:10DB40001820FEF7DAFA044688B10146876002A879
:10DB5000FFF7ADFE049BA268A360059B0492E268F8
:10DB600006A9E36004F110000592FFF7D1FE084B0F
:10DB70002C60EB60074BAB6006A8FFF7D6FE02A84F
:10DB8000FFF78CFE002229460348FFF799FDB7E70F
:10DB9000A9E73F023DEA3F023DE63F022DE9F0439F
:10DBA0008DB004460E46174699469DF85880FFF7FB
:10DBB00045FC40B96FF0D1012046FFF73DFF2046FC
:10DBC0000DB0BDE8F08314200025149BCDE9085565
:10DBD0000790CDF828900B93FEF78FFA014618B105
:10DBE000C0E901550570457004A80391FFF710FFC7
:10DBF0001F4B08200893FEF780FA054610B103A9D1
:10DC0000FFF7C1FE07AB009339463046159A5FFA1D
:10DC100088F30995FFF72EFCB8B9039B01331B78F5
:10DC2000DBB293B905934FF69C7305A903A8ADF831
:10DC30001830FFF739FF05A8FFF777FE05A8099907
:10DC4000FFF7AAFE06A8FFF7FFFD03A905A8FFF747
:10DC50009AFE059B069A23600023626006A806933D
:10DC60000593FFF7F1FD04A8FFF7EEFDA7E700BF5E
:10DC700001EB3F02012AF8B5054603D10B680360AA
:10DC80000020F8BD022A10D0032AF9D10468002C24
:10DC9000F6D004F11000FFF748FE2046FFF7FEFD26
:10DCA00018212046FEF72DFAEAE718200E68FEF745
:10DCB00024FA044650B13146FFF7E6FE3069B6F962
:10DCC000147008B101F07AF82061A7822C60D7E7C0
:10DCD00038B5002383608B6804460D462BB10222C1
:10DCE0009847EB68E360AB68A360204638BD012A23
:10DCF00070B5044603D10B680360002070BD022A92
:10DD00000CD0032AF9D10468002CF6D02046FFF786
:10DD1000C5FD14212046FEF7F4F9EEE714200E6845
:10DD2000FEF7EBF9054620B13146FFF7D1FF337C12
:10DD30002B742560E1E70000F0B5044689B00D467C
:10DD400001A81146FFF728FEA4B124B21DB1284650
:10DD500001F034F8054601A803A90395ADF8104079
:10DD6000FFF7A2FE03A8FFF7E0FD02A8FFF76CFD96
:10DD700009B0F0BD0123019DD5E84F2F002A03D142
:10DD8000C5E8413F0029F7D1EFD12B730122EB18F1
:10DD9000C3E88F2F2B1DD3E8EF6FC3E8E24F002AB3
:10DDA000F9D1002EE1D02046FFF77CFC074660B198
:10DDB000304605F10C01FFF71AFE3046FFF76EFD05
:10DDC00010213046FEF79DF9CFE7314603A8FFF753
:10DDD0007FFF2B7B10208DF81C30FEF78EF9054657
:10DDE000D0B187601420FEF788F9044678B1014667
:10DDF000876003A8FFF75BFD059BA268A360069BF5
:10DE00000592E268E3609DF81C3006922374074B8C
:10DE10002C60EB60064BAB6003A8FFF73FFD0022D0
:10DE200029460448FFF74CFCC7E700BFC9E73F029B
:10DE3000B7EA3F023DE63F02002240681146FFF785
:10DE4000A5BB002240681146FFF7BCBB002240681A
:10DE5000FFF7AABB0022406881F00101FFF788BBF1
:10DE6000002340681A461946FFF774BB0023406838
:10DE70001A461946FFF760BB002240681146FFF7BB
:10DE80004DBB002240681146FFF72CBB0022022147
:10DE90004068FFF735BB002340681A46FFF714BB04
:10DEA0000322024B5A60024A1A60704718AF0710EB
:10DEB000C0FD3F027047F8B5064615460C468F1860
:10DEC000BC4206D0336830469B6814F8011B984763
:10DED000F6E72846F8BD0022007CFFF7B7B800211E
:10DEE000007CFFF7C1B80021007CFFF7CBB8002110
:10DEF000007CFFF7D5B80021007CFFF7DFB810B534
:10DF000004461421FEF7FDF8204610BD0022C0E9AA
:10DF10000022182202800A7802714A688260CA6868
:10DF2000C2600A7A02610A694261704738B50446E4
:10DF300015464FF47A730022C4E90123094B0846C1
:10DF4000217423602946FFF7D5F8BF3008D16B69EB
:10DF5000DB0705D56868FFF7F9FBE868FFF7F6FB14
:10DF6000204638BD04FE3F020022007CFFF736B891
:10DF70000023007C1A461946FFF73EB810B5044648
:10DF800086B06846FFF7C2FF00226946207CFFF793
:10DF9000BFF806B010BD7FB58DF8041000214FF01A
:10DFA000640C5B1A18BF0123CDE904C101A90292D8
:10DFB0008DF80C30FFF7E2FF07B05DF804FB01239A
:10DFC000FFF7E9BF0022007CFFF724B8C9B2FFF7D2
:10DFD000F9BF0022007CFFF72BB80121FFF7F9BF42
:10DFE000FF210022044B0120C3E9001264211A61C1
:10DFF000C3E90201704700BF20AF0710704710B59A
:10E0000004461821FEF77DF8204610BDF0B5037DCB
:10E010000E46062B4FF000048DB000F1040712D01D
:10E0200000F1080515F8011D0A22304600F089F9B3
:10E03000AF42044419D0002CF4D02E21304600F019
:10E0400067F90444EEE72F236A4639460A208DF823
:10E050000040FFF779F86846FEF72AF83368024671
:10E0600069463046DB689847044620460DB0F0BD4F
:10E0700010B50446044B1122002140F8043B00F087
:10E080005FFE204610BD00BF30FE3F020346074A38
:10E0900010B543F8042B01F1100251F8044B9142E2
:10E0A00043F8044BF9D10A781A7010BD30FE3F02D4
:10E0B00010B59DF8084044EA032343EA02420423D2
:10E0C00042EA01614160037510BD000007B5064BCF
:10E0D0000360CB7800938B784A780978FFF7E8FFE4
:10E0E00003B05DF804FB00BF30FE3F02014B024A63
:10E0F0001A60704734AF07103CFE3F0200234068AF
:10E100001A46FFF7E1B9002202214068FFF7F8B98B
:10E11000002240681146FFF7E5B900224068114629
:10E12000FFF7FCB9002340681A461946FFF704BA06
:10E13000002340681A461946FFF70CBA00214068D0
:10E14000FFF74EBA00214068FFF758BA0022406836
:10E1500081F00101FFF70CBA00224068FFF724BAF2
:10E16000002240681146FFF72DBA00224068114690
:10E17000FFF70CBA00214068FFF75CBA2DE9F043C5
:10E180000026984699B00D4614460746FFF770FFE3
:10E190001C22314611A8039600F0D2FDB8F1000F01
:10E1A0002CD1402368681093049618B104A9C0B21A
:10E1B000FEF7BCFF049B20460093002103AB10AA8E
:10E1C000FEF7DEFF044600284DD1024601216868B3
:10E1D000FFF7A4F90221804622466868FFF79EF9FE
:10E1E00021468146039E002E3DD000293BD1736815
:10E1F000022B05D00A2B13D0F669F4E71D4BD1E7AB
:10E20000B8F1000FF8D071690AA804313C1D0BADBC
:10E21000FFF75CFF0FCD0FC42B6841462370EBE77F
:10E22000B9F1000FE8D0102205A8746900F088FD4C
:10E23000062305AD8DF8243004F1080318342A466E
:10E2400018685968083303C2A3421546F7D105A9D7
:10E250000AA83C1D0BADFFF719FF0FCD0FC42B68AB
:10E2600049462370C8E70398FEF77CFF384619B08B
:10E27000BDE8F08340000040033802289ABF024BFB
:10E2800053F820000148704740FE3F0238AF0710A6
:10E2900008B500224068FFF7BFF9BDE80840FFF766
:10E2A000EBBF0000024B034A1A6000225A6070471D
:10E2B00038AF071054FE3F02F8B506460D4600245D
:10E2C0008F18BD420CD0336830469B6815F8011B8F
:10E2D0009847031E01DB1C44F3E7002C08BF1C46D3
:10E2E0002046F8BD13B50446084659B10191FDF723
:10E2F000DFFE0246204623680199DB6802B0BDE8D4
:10E300001040184702B010BD08B5FFF7EBFF08BD7D
:10E3100003689B68184738B50D210546FFF7F8FFDD
:10E320000A2104462846FFF7F3FF204438BD38B5DC
:10E330000546FFF7D7FF04462846FFF7ECFF2044C9
:10E3400038BD0023012A98BF0A2230B58BB08DF862
:10E35000243009AC0D46B1FBF2F101FB125303F07E
:10E36000FF03092B94BF30333733DBB2AA4204F8E2
:10E37000013DEFD92146FFF7B5FF0BB030BD10B519
:10E380000446FFF731F8844208D01CB1BDE81040C4
:10E39000FFF70EB8BDE81040FFF718B810BD70B514
:10E3A00005460E461446FFF71FF850B144EA06240E
:10E3B00044EA0540FEF7EEFFBDE87040E720FFF7B6
:10E3C00021B870BD0022014B9A60704740AF071022
:10E3D00010B5044608462170FEF7E0FE00232046F3
:10E3E000636010BD10B50446FEF788FDE060236849
:10E3F00020465B699847002808DAFEF77FFDE3684E
:10E40000C01AA3689842F2D34FF0FF3010BD2DE937
:10E41000F04107460C460D468E18B542A5EB0408A0
:10E4200007D03846FFF7DEFF031E02DB05F8013B8D
:10E43000F3E74046BDE8F08110B504460068FFF7F9
:10E4400085F9204610BD10B50446006808B1FFF7F5
:10E450007DF90023C4E90133236010BD38B50446BB
:10E460000D4600680131FFF77FF910B1C4E90005DE
:10E47000012038BD10B50368044623B143688B42C0
:10E4800001D3012010BD2046FFF7E8FF0028F9D096
:10E49000A368002BF5D122681370F2E737B50D465B
:10E4A000114601920446FFF7E5FF019A28B920467C
:10E4B000FFF7C9FF204603B030BD2946A26020689F
:10E4C00000F031FC00212268A368D154F2E7002358
:10E4D00013B50446C0E900338360037341B10846B5
:10E4E0000191FDF7E5FD019902462046FFF7D6FFB1
:10E4F000204602B010BD38B5054600680C4670B124
:10E500006A688B689A4208D3096831B100F04EFC02
:10E51000A368AB600023A36038BDFFF717F9236839
:10E520002B6063686B60A368AB600023C4E90033B1
:10E53000F1E7884210B5044601D0FFF7DCFF204622
:10E5400010BDF8B5044616460F4609B90020F8BDBF
:10E550008AB1856815442946FFF78CFF0028F5D05D
:10E56000A368206832461844394600F0DCFB0022DC
:10E5700023685A55A5600120E9E710B58A68096843
:10E580000446FFF7DEFF10B92046FFF75CFF204688
:10E5900010BD00000EB470B587B00BAD55F8042B5C
:10E5A00004462B46052104A801920395FFF7EAF8DB
:10E5B00006460B492046FFF78AFF31462046FFF703
:10E5C00059FF206830B12B46019A711C0395FFF763
:10E5D000D9F8A060204607B0BDE8704003B070478E
:10E5E000E4FB3F0202220020044B1A60044B054A60
:10E5F000C3E900009A60FFF739B800BF5CAF0710AD
:10E6000050AF07100000FFFF08B50020FEF740FFE5
:10E6100028B1FEF713FF80F00100C0B208BD012051
:10E62000FCE710B50020FEF777FC0446A0B9FFF721
:10E630000FF8012810D12046FFF750F860B9FFF716
:10E64000E3FF10B9FEF7ECFEF9E7FFF7DDFFBDE8E9
:10E6500010400020FEF760BC204610BD1FB5FFF73C
:10E66000E0FF10220021684600F06AFB00216846A6
:10E67000FEF76EFC009805B05DF804FB024B1A68CB
:10E68000024B1A60704700BFE8A7071060AF071081
:10E6900070474174704708B5007CFEF7EFFD20EA33
:10E6A000E07008BD08B5007CFEF7A2FD20EAE0702E
:10E6B00008BD08B5007CFEF7B7FD40EAE07008BD74
:10E6C00008B5007CFEF7A2FD40EAE07008BD007CC2
:10E6D000FEF7B8BD37B5457C04462DB1207C03B0AC
:10E6E000BDE83040FEF776BD007C0191FEF7C6FD27
:10E6F00000280199F2DC284603B030BD10B504466D
:10E700001421FDF7FEFC204610BD000010B54FF4AB
:10E710007A730446084611460022C4E90123044BDB
:10E720002074236001236374FEF7B6FD204610BDFC
:10E73000B4FE3F02007CFEF793BD41747047704702
:10E74000704708B50021007CFEF7ECFD40EAE07060
:10E7500008BD08B50121007CFEF7E4FD40EAE07049
:10E7600008BD08B5007CFEF7CFFD20EAE07008BDCB
:10E7700008B5007CFEF7BAFD20EAE07008BD13B5CD
:10E780000446007C0191FEF7BFFD0028019901DCE1
:10E79000607C20B1207CFEF7D3FD20EAE07002B05F
:10E7A00010BD007CFEF7DABD10B504461421FDF75C
:10E7B000A8FC204610BD000010B54FF47A73044643
:10E7C00008460021C4E90113044B2074236001238F
:10E7D00011466374FEF76EFD204610BDE8FE3F0251
:10E7E0000022007CFEF774BD007CFEF7C5BD10B5AD
:10E7F00004461422002100F0A3FA204610BD0000B8
:10E8000010B588B003A8FFF7F2FF0C4CD4E88F1FB7
:10E8100011F001010FD120460191FEF7F9FF019996
:10E8200048B103AA0648FFF7C7FF2046FEF7FEFFE0
:10E83000044800F072FA024808B010BD64AF071037
:10E8400068AF071007F53F02002240681146FEF747
:10E8500065BE002240681146FEF798BE002240685F
:10E860001146FEF7AFBE00224068FEF79DBE0022B3
:10E87000406881F00101FEF77BBE002340681A4624
:10E880001946FEF767BE002340681A461946FEF790
:10E8900053BE002240681146FEF724BE002202212A
:10E8A0004068FEF72DBE002340681A46FEF70CBEF6
:10E8B0000422024B5A60024A1A6070477CAF07106C
:10E8C0001CFF3F020021FEF7DFBE0000014B186075
:10E8D000704700BFECA7071008B50F4B43B1FFF717
:10E8E0008FFF03681B699847002801DD00E000BF27
:10E8F0000A4B43B100F07CF903681B699847002874
:10E9000001DD00E000BF064B0BB100F0B7F9054B8D
:10E910000BB100F0E9F908BD0000000000000000A4
:10E92000000000000000000008B5FFF7D5FFFEF76B
:10E93000E5FA014B186008BD98AF07100548064A74
:10E9400008B5121A054900F0EEF9054B054A1A60A0
:10E9500008BD00BF00B4071004B40710A0F25F08A0
:10E9600000B407101E1C279A002307B51A466FF043
:10E9700077010093FEF7CEFE03B05DF804FB0000C4
:10E9800007B543880A2B08D0502B0BD1094B1B68C5
:10E990004BB103B05DF804EB1847FFF7E5FF03B098
:10E9A0005DF804FB00231A466FF077010093FEF731
:10E9B000B1FEF4E788AF0710002110B51148FEF74B
:10E9C00019FF114B1A68114B9A420CBF0122002209
:10E9D0000F4B1A7001D0FFF7B1FFFEF781FA044622
:10E9E00000F0B6F90B4B13B1204600E000BF002148
:10E9F0000848FEF75BFDBDE8104000210648FEF721
:10EA00007BBE00BF95F63F0200B407101E1C279A7C
:10EA100084AF07100000000049F73F021B2837B5FC
:10EA2000044602D9002003B030BDA0F10F03022B31
:10EA30000BD9012821D800F087F80021007CFEF7CF
:10EA40004BFB80F00100C0B2EDE7114DD5E88F1F00
:10EA500011F001010BD128460191FEF7D9FE019971
:10EA600028B10C48FFF7B4FC2846FEF7DFFE094B3F
:10EA70001878FEF7A1FB0028D4D1083C012C05D85A
:10EA800000F0B6F8007CFEF7EBFBDAE70120CAE7FE
:10EA90008CAF071090AF07101B2838B504460D4601
:10EAA0000AD8FF2908D0FFF7B9FF28B12946204628
:10EAB000BDE83840FEF75ABA38BD38B504460D46B1
:10EAC000FEF762FAFF2810D0062804D84D2323FA57
:10EAD00000F0C30709D42046FFF7A0FF28B129465C
:10EAE0002046BDE83840FEF75DBA38BD10B5044693
:10EAF000FEF74AFA031FDBB2012B08D92046FFF7C5
:10EB00008DFF20B12046BDE81040FEF759BA002025
:10EB100010BD704738B50A4B04460360012309490C
:10EB20004361202000F0F4F8202560600549284664
:10EB3000A56000F0EDF8C4E90305204638BD00BF2C
:10EB40001800010058FF3F0230B50E4D87B0D5E8E0
:10EB50008F1F11F0010411D12846FEF759FE68B14C
:10EB60006846FFF7D7FF6A4621460748FFF7DEF9F8
:10EB70002846FEF75BFE054800F0CFF8024807B0D4
:10EB800030BD00BF9CAF0710A0AF0710DBF83F02FD
:10EB90007047000038B5142504462A46002100F0CD
:10EBA000CFF825804025074928462581258200F099
:10EBB000AFF804496060284600F0AAF8E0602046FB
:10EBC00038BD00BF58FF3F027047704710B504467C
:10EBD000FFF7E0FF204610BD10B50446FFF7DAFF4F
:10EBE000204610BD10B50446FFF7D4FF204610BDE7
:10EBF00030B50E4D87B0D5E88F1F11F0010411D14B
:10EC00002846FEF705FE68B101A8FFF7DFFF2146A1
:10EC100001AA0748FFF77AFD2846FEF707FE0548D8
:10EC200000F07BF8024807B030BD00BFB4AF07105A
:10EC3000C0AF071059F93F0210B50D4C86B0D4E8AB
:10EC40008F3FDB0711D42046FEF7E2FD68B101A833
:10EC5000FFF7C2FF012101AA0648FFF757FD204632
:10EC6000FEF7E4FD044800F058F8024806B010BD75
:10EC7000B8AF0710D4AF071093F93F0210B5FFF7F4
:10EC8000DBFF074B044653B1FFF754FD38B123684F
:10EC900020461B699847002801DD00E000BF10BD39
:10ECA0000000000010B50D4C86B0D4E88F3FDB07A4
:10ECB00011D42046FEF7ACFD68B101A8FFF792FF22
:10ECC000022101AA0648FFF721FD2046FEF7AEFD0E
:10ECD000044800F022F8024806B010BDBCAF07108F
:10ECE000E8AF071091F93F0210B5FFF7DBFF074BC4
:10ECF000044653B1FFF71EFD38B1236820461B6957
:10ED00009847002801DD00E000BF10BD00000000B2
:10ED1000FDF7F5B908B5FEF743FD002301461A4695
:10ED20001846FDF7F0B90A44431E914200D17047DE
:10ED300010B511F8014B914203F8014FF9D110BD04
:10ED400002440346934200D1704703F8011BF9E7E0
:10ED500038B5104B04461D68AB6BB3B91820FEF7ED
:10ED6000E7FC0246A86320B90B4B42210B48FEF793
:10ED700033FD0B490B4BC0E900130B4B00218360A3
:10ED80000B2383810120C2E90401AB6B00221C61CB
:10ED90005A6138BDECA7071059FF3F0270FF3F02D0
:10EDA0000E33CDAB34126DE6ECDE0500034611F8F0
:10EDB000012B03F8012B002AF9D17047024B0146C1
:10EDC000186800F003B800BFECA7071037B5044679
:10EDD00008460D46FDF76CF9421C2046114601928B
:10EDE000FEF7ECFC044618B1019A2946FFF79BFF99
:10EDF000204603B030BD000089CE3F02B1CE3F02B5
:10EE0000B5CE3F0200000000547275652028657879
:10EE1000706563746564292049443A20004465762E
:10EE20006963652049443A20004D41583330313000
:10EE30003220776173206E6F7420666F756E642E5A
:10EE400020436865636B20776972696E6720616E25
:10EE50006420706F7765722E004D41583330313029
:10EE60003220696E697469616C697A65642E007B11
:10EE7000226465766963654964223A222573222CEF
:10EE800022686561727452617465223A25642C228D
:10EE900073706F32223A25642C2274696D65737425
:10EEA000616D70223A256C757D0050686F746F6ECD
:10EEB000325F53656E644576656E74005075626CA2
:10EEC00069736865643A20005075626C69736820E4
:10EED0006661696C6564004852203D2000206270C4
:10EEE0006D202876616C69643D00292C2053704F99
:10EEF00032203D20002025202876616C69643D0089
:10EF00002900306131306163656432303231393427
:10EF100039343461303634656563005F5F5F60604B
:10EF200060616161616162626262626363636363C3
:10EF30006363636464646464646464646464646494
:10EF4000646464646464646363636363636363628B
:10EF5000626262626261616161606060605F5F5FA6
:10EF60005E5E5E5D5D5D5C5C5C5B5B5A5A595959E7
:10EF7000585857575656555554545352525151504C
:10EF8000504F4E4E4D4C4C4B4A4A494848474645D7
:10EF9000454443424241403F3E3E3D3C3B3A393886
:10EFA0003837363534333231302F2E2D2C2B2A2959
:10EFB00028272625242322211F1E1D1C1B1A191752
:10EFC0001615141311100F0E0C0B0A090706050372
:10EFD000020100000000000000000000BDE63F024A
:10EFE000C3E63F0201E73F02D1E63F02BFE63F0230
:10EFF00000000000000000005FEC3F0255EC3F0203
:10F000004BEC3F0241EC3F0235EC3F0229EC3F0262
:10F0100005EF3F020DEF3F021DEC3F0215EC3F02F2
:10F020000BEC3F0201EC3F0259F03F023DEF3F0283
:10F0300045EF3F0200000000000000007DEC3F02B1
:10F04000C7EC3F029FEC3F027FEC3F02A7EC3F0280
:10F05000AFEC3F02B7EC3F02BFEC3F02D7F13F02FB
:10F060000000000000000000D5ED3F02C5ED3F02AA
:10F07000C7ED3F026170700018AF07107CAF07103A
:10F0800038AF07100000000000000000C5EE3F028E
:10F09000CFEE3F02D9EE3F02E3EE3F02EDEE3F023C
:10F0A000F9EE3F0205EF3F020DEF3F0215EF3F0281
:10F0B00021EF3F0229EF3F0233EF3F0259F03F02B9
:10F0C0003DEF3F0245EF3F0225592D256D2D25646B
:10F0D0005425483A254D3A2553257A0061736374C7
:10F0E000696D6500000000000000000059F43F0257
:10F0F000C5F43F029DF43F0281F03F026DF43F02F0
:10F1000089F43F027BF43F0297F43F02D7F13F02BC
:10F110005BF43F025FF43F020000000000000000CB
:10F1200009F53F0271F53F0247F53F0281F03F02CA
:10F1300039F53F020BF53F021BF53F026BF53F022D
:10F14000D7F13F022BF53F0203F53F02000000001C
:10F15000000000006FF63F0265F63F025BF63F02DB
:10F1600011F63F024FF63F0243F63F0205EF3F0222
:10F170000DEF3F0237F63F022FF63F0225F63F0222
:10F180001BF63F0259F03F023DEF3F0245EF3F02C1
:10F19000005245454E54206D616C6C6F6320737551
:10F1A00063636565646564002F746D702F6A656EB6
:10F1B0006B696E732D4743432D31302D7069706537
:10F1C0006C696E652D34385F323032303131323413
:10F1D0005F313630363138303633392F7372632F22
:10F1E0006E65776C69622F6E65776C69622F6C69EA
:10F1F00062632F7374646C69622F72616E642E6334
:10F200000000000075D33F029DE63F02ADE63F02DD
:10F2100069EC3F02A9ED3F02B5EE3F026DF03F02FF
:10F220008DF13F02ADF33F0245F43F0279F63F0214
:10F230000000000207000000A4FE3F02F0A7071034
:10F2400000000000000000000000000000000000BE
:10F2500000000000000000000000000000000000AE
:10F26000000000000000000000000000000000009E
:10F27000000000000000000000000000000000008E
:10F28000000000000000000000000000000000007E
:10F29000000000000000000000000000000000006E
:04F2A000000000006A
:10FFBE000200100000C05F08A8C05F0870CE3F02AC
:10FFCE0001000A00FFFFFFFFFFFF00000102030414
:10FFDE0005060708090A0B0C0D0E0F10111213144B
:0EFFEE0015161718191A1B1C1D1E1F203E0089
:04FFFC0078563412ED
:04000005085FC018B8
:00000001FF
